S01E00006C696E6520666F6C6C6F7765722070726F6A656374322E737265638B
S11300000C942A000C9434000C9434000C943400A6
S11300100C9434000C9434000C9434000C9434008C
S11300200C9434000C9434000C9434000C9434007C
S11300300C9434000C9434000C9434000C9434006C
S11300400C9434000C9434000C9434000C9434005C
S11300500C94340011241FBECFE5D4E0DEBFCDBF25
S11300600E9436000C944D000C9400008CEF8ABB67
S11300708FEF81BB83E089BBC89907C0C99902C0CF
S113008012BAF8CF81E082BBF5CFC99903C082E0F0
S111009082BBF0CF83E082BBEDCFF894FFCFAC
S9030000FC
